S01000004D6963726F204C502E737265635E
S11300000C9434000C9430100C9476100C94510021
S11300100C9413110C94BC100C9451000C945100CA
S11300200C9451000C9451000C9451000C94510008
S11300300C9451000C9451000C9451000C945100F8
S11300400C9451000C9451000C9476000C945100C3
S11300500C9451000C9451000C9451000C945100D8
S11300600C9451000C94510011241FBECFEFD8E022
S1130070DEBFCDBF14E0A0E0B1E0EAECF9E202C0DB
S113008005900D92A430B107D9F724E0A4E0B4E0C0
S113009001C01D92A737B207E1F70E9442060C94F3
S11300A0E3140C940000519A50981092C00088E90F
S11300B08093C10086E08093C2001092C50087E659
S11300C08093C4008FE391E090937404809373044D
S11300D00895E0ECF0E0908195FFFDCF8093C60099
S11300E008950E94690080E090E008951F920F92A5
S11300F00FB60F9211242F933F934F935F936F93F7
S11301007F938F939F93AF93BF93EF93FF938091CC
S1130110C600909144049923B1F18E3359F0909123
S11301204304911125C0805380934F0481E0809350
S113013043042EC0E0915004F0E0EF5AFB4F1082CC
S113014010925004109244041092430481E594E008
S11301500E94991170934E0460934D0480914B0456
S113016090914C04019690934C0480934B0410C0DE
S1130170E091500491E09E0F90935004F0E0EF5A08
S1130180FB4F808305C08C3319F481E080934404D1
S1130190FF91EF91BF91AF919F918F917F916F915B
S11301A05F914F913F912F910F900FBE0F901F9031
S11301B0189583E084BD82E085BD81E08093800052
S11301C08AE080938100089587BD613061F41092C4
S11301D022041092210484B5806884BD8DE491E0EA
S11301E00E94EB11089584B58F7784BD80912D040E
S11301F090912E04909322048093210485E591E04C
S11302000E94EB11089588BD613061F410922004BE
S113021010921F0484B5806284BD8EE591E00E9433
S1130220EB11089584B58F7D84BD80912B0490914A
S11302302C049093200480931F0486E691E00E948E
S1130240EB11089590E090938900809388006130C9
S113025071F410921E0410921D04E0E8F0E0808115
S1130260806880838FE691E00E94EB110895E0E8B6
S1130270F0E080818F7780838091290490912A0413
S113028090931E0480931D0487E791E00E94EB1174
S1130290089580E480937C0087E080937A00109234
S11302A07B000895ECE7F0E09081907F908390814B
S11302B0892B8083EAE7F0E08081806880838081F5
S11302C080648083808186FDFDCFEAE7F0E0808151
S11302D08F77808380917800909179000895809140
S11302E04B0490914C04019709F024C110924C04E2
S11302F010924B0480914F04811121C081E08093BE
S1130300340481E090E090934A04809349048091FE
S11303104D0490914E0480930C0490930D049F938C
S11303208F9380E891E09F938F930E94D51184E985
S113033091E00E94EB110F900F900F900F9080911D
S11303404F048130A1F41092340481E090E0909342
S11303504A048093490480914D0490914E049093F3
S11303600D0480930C0485EA91E00E94EB118091C6
S11303704F048230A9F481E08093350481E090E059
S1130380909348048093470480914D0490914E04C7
S113039090930B0480930A0486EB91E00E94EB1186
S11303A080914F048330A1F41092350481E090E0F1
S11303B0909348048093470480914D0490914E0497
S11303C090930B0480930A0484EC91E00E94EB1157
S11303D080914F048430A9F481E08093330481E058
S11303E090E0909346048093450480914D0490914D
S11303F04E04909309048093080482ED91E00E94D6
S1130400EB1180914F048530A1F41092330481E004
S113041090E0909346048093450480914D0490911C
S11304204E04909309048093080480EE91E00E94A6
S1130430EB1180914F048630F1F48091160490E022
S11304400E94520180931404909315049F938F93F8
S11304508EEE91E09F938F930E94D5112FEF86E744
S113046091E0215080409040E1F700C000000F90DF
S11304700F900F900F9080914F048730F1F480918A
S1130480370190E00E945201809312049093130468
S11304909F938F938CEF91E09F938F930E94D5113C
S11304A02FEF86E791E0215080409040E1F700C0B3
S11304B000000F900F900F900F9080914F048830A0
S11304C0F1F48091380190E00E945201809310046D
S11304D0909311049F938F938AE092E09F938F935C
S11304E00E94D5112FEF86E791E021508040904083
S11304F0E1F700C000000F900F900F900F908091D3
S11305004F048930B9F4109242041F921F9287E17C
S113051092E09F938F930E94D5112FEF86E791E08D
S1130520215080409040E1F700C000000F900F90F0
S11305300F900F900895E9E6F0E080818160808358
S113054080818D7F8083E89A80818460808380812C
S1130550877F8083E99AE8E6F0E080818460808385
S1130560ADE6B0E08C9180618C9380818260808361
S1130570ECE6F0E080818860808308952FEF84E3C7
S11305809CE0215080409040E1F700C0000083E2ED
S113059092E00E94EB112FEF84E39CE02150804015
S11305A09040E1F700C000008091380190E00E9483
S11305B0520190931104809310042FEF84E39CE084
S11305C0215080409040E1F700C0000088EB9BE0A0
S11305D090930D0480930C042FEF84E39CE021504E
S11305E080409040E1F700C0000080911004909199
S11305F01104853F91050CF05EC01092340484E62A
S11306008093370481E080933A042BB181E090E039
S113061000903C0102C0880F991F0A94E2F780956C
S113062082238BB98FE39CE90197F1F700C00000A6
S113063060913A04809137040E9403018FE39CE99E
S11306400197F1F700C0000004C09AE69A95F1F70B
S113065000C08091380190E00E945201863F9105CC
S1130660A4F360E080E00E9403011092370410922A
S11306703A0481E08093400428B181E090E0009046
S11306803E0102C0880F991F0A94E2F7822B88B9B1
S113069010922C0410922B0410920D0410920C044E
S11306A082E392E00E94EB118FE19EE40197F1F75F
S11306B000C0000010C028B181E090E000903E012D
S11306C002C0880F991F0A94E2F7822B88B982E34B
S11306D092E00E94EB1126B181E090E00090360197
S11306E002C0880F991F0A94E2F730E08223932313
S11306F090930F0480930E0428E53BE130930B04A0
S113070020930A04892BE1F5109235048EE6809338
S1130710380481E080933B0425B181E090E00090AF
S1130720320402C0880F991F0A94E2F7809582234D
S113073085B960913B04809138040E94E4003399A8
S113074005C090EA9A95F1F7339BFBCF60E080E017
S11307500E94E4001092370410923A0410922E047E
S113076010922D0410920B0410920A048DE392E06F
S11307700E94EB118FE19EE40197F1F700C00000A5
S11307808091370190E00E9452019093130480936A
S1130790120428EB3BE030930904209308044F979C
S11307A0E4F5109233048AE58093360481E0809363
S11307B0390425B181E090E000903B0102C0880F2C
S11307C0991F0A94E2F78095822385B960913904D0
S11307D0809136040E9422018091370190E00E94AA
S11307E052014F97CCF360E080E00E942201109206
S11307F036041092390410922A041092290410929B
S113080009041092080488E492E00E94EB118FE13D
S11308109EE40197F1F700C00000109228041092A2
S11308202704109226041092250410922404109296
S11308302304109231041092300410922F0408956E
S1130840CF93DF9381E01B9B80E01C9902C020E0E2
S113085001C022E01D9902C090E001C094E0820F23
S1130860890FC82FD0E01F928F9383E592E09F9366
S11308708F930E94D5110F900F900F900F90CE017F
S1130880DF91CF910895E0913D04F0E0EE0FFF1F5A
S1130890EC5DFE4F808191812091250430912604E6
S11308A028173907FCF4821B930B90930D04809353
S11308B00C0421E02093340481E090E090931A0426
S11308C08093190434E63093370420933A042BB10F
S11308D000903C0102C0880F991F0A94E2F7822B12
S11308E08BB945C08217930744F5821B930B9C0177
S11308F022F422273327281B390B30930D0420932D
S11309000C04109234048FEF9FEF90931A04809399
S1130910190484E68093370481E080933A042BB170
S113092081E090E000903C0102C0880F991F0A9476
S1130930E2F7809582238BB91AC082179307B9F422
S113094010920D0410920C04109234041092370487
S113095010923A042BB181E090E000903C0102C077
S1130960880F991F0A94E2F7809582238BB9E0914E
S11309703D04F0E0EE0FFF1FEE5EFE4F808191819B
S1130980209127043091280428173907FCF4821B8E
S1130990930B90930B0480930A0421E02093350475
S11309A081E090E090931C0480931B0436E930931B
S11309B0380420933B0425B10090320402C0880F10
S11309C0991F0A94E2F7822B85B945C082179307D1
S11309D044F5821B930B9C0122F422273327281B06
S11309E0390B30930B0420930A04109235048FEFD3
S11309F09FEF90931C0480931B0486E98093380432
S1130A0081E080933B0425B181E090E000903204C2
S1130A1002C0880F991F0A94E2F78095822385B952
S1130A201AC082179307B9F410920B0410920A04A7
S1130A30109235041092380410923B0425B181E0E1
S1130A4090E00090320402C0880F991F0A94E2F7E4
S1130A508095822385B9E0913D04F0E0EE0FFF1FFD
S1130A60E050FF4F80819181209123043091240430
S1130A7028173907FCF4821B930B90930904809385
S1130A80080421E02093330481E090E0909318045B
S1130A908093170434E6309336042093390425B147
S1130AA000903B0102C0880F991F0A94E2F7822B41
S1130AB085B945C08217930744F5821B930B9C01AB
S1130AC022F422273327281B390B3093090420935F
S1130AD00804109233048FEF9FEF909318048093CF
S1130AE0170484E68093360481E08093390425B1A9
S1130AF081E090E000903B0102C0880F991F0A94A6
S1130B00E2F78095822385B91AC082179307B9F456
S1130B1010920904109208041092330410923604BF
S1130B201092390425B181E090E000903B0102C0AD
S1130B30880F991F0A94E2F78095822385B98091E2
S1130B400D048F9380910C048F9380E692E09F9321
S1130B508F930E94D5118FE19EE40197F1F700C0B5
S1130B60000080910B048F9380910A048F9389E68F
S1130B7092E09F938F930E94D5118FE19EE4019799
S1130B80F1F700C00000809109048F93809108045C
S1130B908F9382E792E09F938F930E94D5118FE108
S1130BA09EE40197F1F700C0000010923104109206
S1130BB0300410922F048DB79EB70C960FB6F8949C
S1130BC09EBF0FBE8DBF08958091380190E00E94B2
S1130BD05201909311048093100428EE33E0309373
S1130BE00D0420930C04853F91050CF03FC0109236
S1130BF0340484E68093370481E080933A042BB173
S1130C0081E090E000903C0102C0880F991F0A9493
S1130C10E2F7809582238BB960913A04809137047E
S1130C200E94030185E38A95F1F7000003C080E583
S1130C308A95F1F78091380190E00E945201863F35
S1130C409105ACF360E080E00E9403011092370448
S1130C5010923A0481E0809340041092260410928A
S1130C60250410922C0410922B04089581E08093A3
S1130C70400410922C0410922B041092260410921B
S1130C8025040895F89480E187B982EE8AB987E053
S1130C9084B9439A459A85B1886385B944988BB1E0
S1130CA08C618BB98BB18F718BB985B1887F85B914
S1130CB00E9449010E94D9000E949B020E94530095
S1130CC07894C5E0D4E088248394912C0F2EF9E223
S1130CD06F2EF3E07F2EF02D0F2EF6E34F2EF3E070
S1130CE05F2EF02D0F2EF4E42F2EF3E03F2EF02D87
S1130CF00F2EF2E5CF2EF3E0DF2EF02D0F2EF3E6CC
S1130D00AF2EF3E0BF2EF02D2FEF34E34CE0215053
S1130D1030404040E1F700C000008FEF94E32CE046
S1130D20815090402040E1F700C000000E946F0114
S1130D303FEF44E38CE0315040408040E1F700C095
S1130D4000008091420481119AC080914104811174
S1130D5096C084E190E02FEF34E34CE02150304022
S1130D604040E1F700C000000197A9F78FEF94E33A
S1130D702CE0815090402040E1F700C000003FEF9C
S1130D8044E38CE0315040408040E1F700C0000073
S1130D909FEF24E33CE0915020403040E1F700C055
S1130DA000004FEF84E39CE0415080409040E1F725
S1130DB000C000008BE792E09F938F930E94D511AF
S1130DC02FEF34E34CE0215030404040E1F700C0C5
S1130DD000008BE892E00E94EB118FEF94E32CE08B
S1130DE0815090402040E1F700C000000E94BE0204
S1130DF081E08093420488E080933C043FEF44E325
S1130E008CE0315040408040E1F700C000008DE9A3
S1130E1092E00E94EB1198B1940100903E0102C04F
S1130E20220F331F0A94E2F7822F8095892388B911
S1130E30A40100903E0102C0440F551F0A94E2F73A
S1130E40B40100903D0102C0660F771F0A94E2F7D7
S1130E500F900F9031E00EC086B190E0842395236B
S1130E60892B51F486B190E086239723892B21F0B6
S1130E703093410420914104213071F705C08091E1
S1130E804104813009F0BFC70BED12E00F2EFAECDC
S1130E90EF2EF2E0FF2EF02D82EA92E00E94EB1199
S1130EA08FE19EE40197F1F700C000000E94200446
S1130EB088830E94200489830E9420048A83988165
S1130EC02981921308C0891303C0809304040EC0BF
S1130ED0909304040BC089130C942B108093040486
S1130EE005C08093040402C0209304048091040488
S1130EF080933D0490913C04891709F479C791309B
S1130F0021F02DEF290F223018F4811171C707C089
S1130F10813019F08350823010F4911169C788EA46
S1130F2092E00E94EB118FE19EE40197F1F700C07B
S1130F30000080913D0480933C0460E080E00E94C6
S1130F40030160E080E00E94E40060E080E00E9431
S1130F5022010E94E4050E94430428B1C4010090C8
S1130F603E0102C0880F991F0A94E2F7822B88B9C8
S1130F70940100903E0102C0220F331F0A94E2F74D
S1130F80A40100903D0102C0440F551F0A94E2F7EA
S1130F9072E00EC086B190E082239323892B51F036
S1130FA086B190E084239523892B21F47093410426
S1130FB060914104623071F78EEA92E00E94EB1175
S1130FC08FE19EE40197F1F700C0000080913D0499
S1130FD08111D1C082EB92E00E94EB118FE39CE976
S1130FE00197F1F700C00000809108049091090472
S1130FF0892BE1F160913904809136040E94220129
S113100080912F04813069F09FEF29EF30E09150F7
S113101020403040E1F700C0000080912F0481306F
S113102099F7409117045091180480911D049091F0
S11310301E04489F9001499F300D589F300D112484
S11310408091230490912404820F931F909324048D
S1131050809323049F938F9389EB92E09F938F93C4
S11310600E94D5110F900F900F900F9080910A0459
S113107090910B04892BD1F160913B048091380449
S11310800E94E40080913004813069F04FEF89EFD1
S113109090E0415080409040E1F700C00000809112
S11310A03004813099F740911B0450911C048091C5
S11310B0210490912204489F9001499F300D589F2C
S11310C0300D11248091270490912804820F931FDE
S11310D090932804809327049F938F93FF92EF9219
S11310E00E94D5110F900F900F900F9080910C04D7
S11310F090910D04892BD1F160913A0480913704C9
S11311000E94030180913104813069F02FEF39EF9F
S113111040E0215030404040E1F700C000008091A1
S11311203104813099F74091190450911A04809147
S11311301F0490912004489F9001499F300D589FAF
S1131140300D11248091250490912604820F931F61
S113115090932604809325049F938F931F930F935A
S11311600E94D5110F900F900F900F908CEE92E08B
S11311700E94EB11A0C5813009F0D7C0809108040A
S113118090910904892B09F44BC060913904809132
S113119036040E9422011BC08091370190E00E9416
S11311A05201853691059CF060E080E00E942201A6
S11311B010922A04109229041092390410923604D1
S11311C081E080932F0487EF92E00E94EB118091DD
S11311D02F04813009F7409117045091180480912D
S11311E01D0490911E04489F9001499F300D589F03
S11311F0300D11248091230490912404820F931FB5
S113120090932404809323049F938F9389EB92E01B
S11312109F938F930E94D5110F900F900F900F9072
S113122080910A0490910B04892BD1F160913B04C5
S1131230809138040E94E40080913004813069F088
S11312409FEF29EF30E0915020403040E1F700C09B
S1131250000080913004813099F740911B04509133
S11312601C048091210490912204489F9001499F7D
S1131270300D589F300D112480912704909128043B
S1131280820F931F90932804809327049F938F9336
S1131290FF92EF920E94D5110F900F900F900F9034
S11312A080910C0490910D04892BD1F160913A0442
S11312B0809137040E94030180913104813069F0E8
S11312C04FEF89EF90E0415080409040E1F700C03B
S11312D0000080913104813099F7409119045091B4
S11312E01A0480911F0490912004489F9001499F03
S11312F0300D589F300D11248091250490912604BF
S1131300820F931F90932604809325049F938F93B9
S11313101F930F930E94D5110F900F900F900F9071
S11313208CEE92E00E94EB11C6C4823009F0C2C078
S11313308091080490910904892BB1F120ED37E0E4
S11313403093090420930804609139048091360491
S11313500E9422018091370190E00E9452018397FC
S1131360CCF360E080E00E94220110922A041092E3
S11313702904109239041092360481E080932F04DA
S113138087EF92E00E94EB11109224041092230440
S11313901F921F9289EB92E09F938F930E94D51125
S11313A00F900F900F900F9080910A0490910B046E
S11313B0892B59F188E893E190930B0480930A04F4
S11313C060913B04809138040E94E40080913004D1
S11313D0813069F09FEF29EF30E091502040304098
S11313E0E1F700C0000080913004813099F7109239
S11313F02804109227041F921F92FF92EF920E94DA
S1131400D5110F900F900F900F9080910C04909134
S11314100D04892B09F449C060913A048091370482
S11314200E9403011BC08091160490E00E945201A7
S1131430873491059CF060E080E00E9403011092E3
S11314402C0410922B0410923A041092370441E0B9
S11314504093310481E093E00E94EB1180913104C8
S1131460813009F74091190450911A0480911F04A6
S113147090912004489F9001499F300D589F300D52
S113148011248091250490912604820F931F909338
S11314902604809325049F938F931F930F930E9498
S11314A0D5110F900F900F900F908CEE92E00E9448
S11314B0EB1101C4833009F0D1C0809108049091EC
S11314C00904892BB1F180ED97E09093090480938E
S11314D0080460913904809136040E9422018091AD
S11314E0370190E00E9452018397CCF360E080E0E2
S11314F00E94220110922A041092290410923904A5
S11315001092360481E080932F0487EF92E00E94CA
S1131510EB1110922404109223041F921F9289EB62
S113152092E09F938F930E94D5110F900F900F908C
S11315300F9080910A0490910B04892BD1F1609152
S11315403B04809138040E94E4008091300481308F
S113155069F09FEF29EF30E0915020403040E1F7EF
S113156000C0000080913004813099F740911B0441
S113157050911C048091210490912204489F900171
S1131580499F300D589F300D11248091270490916C
S11315902804820F931F90932804809327049F9319
S11315A08F93FF92EF920E94D5110F900F900F909E
S11315B00F9080910C0490910D04892B09F449C07B
S11315C060913A04809137040E9403011BC080910A
S11315D0160490E00E945201873491059CF060E06B
S11315E080E00E94030110922C0410922B041092AC
S11315F03A041092370441E04093310481E093E0CF
S11316000E94EB1180913104813009F74091190453
S113161050911A0480911F0490912004489F9001D6
S1131620499F300D589F300D1124809125049091CD
S11316302604820F931F90932604809325049F937E
S11316408F931F930F930E94D5110F900F900F90BB
S11316500F908CEE92E00E94EB112DC3843009F0C0
S1131660BCC08091080490910904892B09F44AC0F4
S113167060913904809136040E9422011AC080913D
S1131680370190E00E9452014F979CF060E080E0A7
S11316900E94220110922A04109229041092390403
S11316A01092360481E080932F0487EF92E00E9429
S11316B0EB1180912F04813011F740911704509160
S11316C0180480911D0490911E04489F9001499F25
S11316D0300D589F300D11248091230490912404DF
S11316E0820F931F90932404809323049F938F93DA
S11316F089EB92E09F938F930E94D5110F900F90E6
S11317000F900F9080910A0490910B04892B29F17A
S113171028E833E130930B0420930A0460913B04DE
S1131720809138040E94E40080913004813039F0C3
S113173030EA3A95F1F7809130048130C9F710927C
S11317402804109227041F921F92FF92EF920E9486
S1131750D5110F900F900F900F9080910C049091E1
S11317600D04892BA9F180ED97E090930D048093EB
S11317700C0460913A04809137040E940301809123
S1131780380190E00E945201853F9105C4F360E066
S113179080E00E94030110922C0410922B041092FA
S11317A03A041092370481E08093310481E093E09D
S11317B00E94EB1110922604109225041F921F928E
S11317C01F930F930E94D5110F900F900F900F90BD
S11317D08CEE92E00E94EB116EC2853009F0C7C016
S11317E08091080490910904892BE1F160913904F6
S11317F0809136040E94220180912F04813069F087
S11318009FEF29EF30E0915020403040E1F700C0D5
S1131810000080912F04813099F740911704509172
S1131820180480911D0490911E04489F9001499FC3
S1131830300D589F300D112480912304909124047D
S1131840820F931F90932404809323049F938F9378
S113185089EB92E09F938F930E94D5110F900F9084
S11318600F900F9080910A0490910B04892BD1F171
S113187060913B04809138040E94E400809130041C
S1131880813069F04FEF89EF90E041508040904003
S1131890E1F700C0000080913004813099F7409155
S11318A01B0450911C048091210490912204489FB0
S11318B09001499F300D589F300D112480912704C9
S11318C090912804820F931F9093280480932704F7
S11318D09F938F93FF92EF920E94D5110F900F90D8
S11318E00F900F9080910C0490910D04892BD1F1ED
S11318F060913A04809137040E940301809131047D
S1131900813069F02FEF39EF40E021503040404002
S1131910E1F700C0000080913104813099F74091D3
S1131920190450911A0480911F0490912004489F37
S11319309001499F300D589F300D1124809125044A
S113194090912604820F931F90932604809325047C
S11319509F938F931F930F930E94D5110F900F9015
S11319600F900F908CEE92E00E94EB11A4C1863090
S113197009F0F2C08BE093E00E94EB118FE19EE44A
S11319800197F1F700C000008091080490910904C8
S1131990892B09F446C081E193E00E94EB11609128
S11319A03904809136040E94220180912F048130F1
S11319B069F09FEF29EF30E0915020403040E1F78B
S11319C000C0000080912F04813099F740911704E2
S11319D05091180480911D0490911E04489F900119
S11319E0499F300D589F300D11248091230490910C
S11319F02404820F931F90932404809323049F93C1
S1131A008F9389EB92E09F938F930E94D5118FE17E
S1131A109EE40197F1F700C000000F900F900F9023
S1131A200F9080910A0490910B04892B09F444C00F
S1131A3089E193E00E94EB1160913B0480913804AA
S1131A400E94E40080913004813069F09FEF29EF17
S1131A5030E0915020403040E1F700C00000809118
S1131A603004813099F740911B0450911C048091FB
S1131A70210490912204489F9001499F300D589F62
S1131A80300D11248091270490912804820F931F14
S1131A9090932804809327049F938F93FF92EF924F
S1131AA00E94D5118FE19EE40197F1F700C0000078
S1131AB00F900F900F900F9080910C0490910D0453
S1131AC0892B09F444C081E293E00E94EB116091F8
S1131AD03A04809137040E940301809131048130DB
S1131AE069F09FEF29EF30E0915020403040E1F75A
S1131AF000C0000080913104813099F740911904AD
S1131B0050911A0480911F0490912004489F9001E1
S1131B10499F300D589F300D1124809125049091D8
S1131B202604820F931F90932604809325049F9389
S1131B308F931F930F930E94D5118FE19EE4019719
S1131B40F1F700C000000F900F900F900F908CEEF3
S1131B5092E00E94EB11AFC0873009F0ACC08091D5
S1131B60080490910904892BB1F120ED37E03093FA
S1131B7009042093080460913904809136040E947A
S1131B8022018091370190E00E9452014E97CCF3DC
S1131B9060E080E00E94220110922A04109229043D
S1131BA0109239041092360481E080932F0487EF59
S1131BB092E00E94EB1110922404109223041F92CD
S1131BC01F9289EB92E09F938F930E94D5110F90FF
S1131BD00F900F900F9080910A0490910B04892B21
S1131BE059F188E893E190930B0480930A0460917F
S1131BF03B04809138040E94E400809130048130D9
S1131C0069F09FEF29EF30E0915020403040E1F738
S1131C1000C0000080913004813099F710922804AC
S1131C20109227041F921F92FF92EF920E94D511E7
S1131C300F900F900F900F9080910C0490910D04D1
S1131C40892BA9F180ED97E090930D0480930C0407
S1131C5060913A04809137040E9403018091380115
S1131C6090E00E945201853F9105C4F360E080E05A
S1131C700E94030110922C0410922B0410923A0437
S1131C801092370481E08093310481E093E00E9454
S1131C90EB1110922604109225041F921F921F9399
S1131CA00F930E94D5110F900F900F900F908CEE10
S1131CB092E00E94EB1110920D0410920C04109209
S1131CC00B0410920A04109209041092080481E093
S1131CD080933E04809126048F93809125048F93F2
S1131CE07F926F920E94D511809128048F938091E6
S1131CF027048F935F924F920E94D5118091240400
S1131D008F93809123048F933F922F920E94D51139
S1131D108091160490E00E9452019F938F93DF926A
S1131D20CF920E94D5118091370190E00E94520118
S1131D309F938F93BF92AF920E94D51198B1940153
S1131D4000903E0102C0220F331F0A94E2F7822F53
S1131D508095892388B9940100903E0102C0220F26
S1131D60331F0A94E2F7A40100903D0102C0440F1E
S1131D70551F0A94E2F78DB79EB744960FB6F894B0
S1131D809EBF0FBE8DBF0FC086B190E08223932308
S1131D90892B59F486B190E084239523892B29F06B
S1131DA093E09093410460914104633069F781E0CA
S1131DB080933F0484E793E00E94EB118FE19EE45B
S1131DC00197F1F700C0000080913E04813081F456
S1131DD080913F04813061F4809341041092310476
S1131DE01092300410922F0410923E0410923F047B
S1131DF08CE793E00E94EB110E946F0180914104F3
S1131E00813009F449C88091490490914A040197AA
S1131E1009F058C080914F04811129C084E6809351
S1131E20370481E080933A042BB1C40100903C0153
S1131E3002C0880F991F0A94E2F7822B8BB986E8B7
S1131E4093E00E94EB1110924A04109249046091AD
S1131E503A04809137040E9403019FEF23EC39E098
S1131E60915020403040E1F700C000002BC0813089
S1131E7049F584E68093370481E080933A048BB17A
S1131E80940100903C0102C0220F331F0A94E2F730
S1131E90209582238BB984E993E00E94EB11109280
S1131EA04A041092490460913A04809137040E94D4
S1131EB003014FEF83EC99E0415080409040E1F7FB
S1131EC000C000008091470490914804019709F0F4
S1131ED058C080914F04823049F584E680933804D9
S1131EE081E080933B0425B1C4010090320402C018
S1131EF0880F991F0A94E2F7822B85B983EA93E04D
S1131F000E94EB11109248041092470460913B0424
S1131F10809138040E94E4002FEF33EC49E0215013
S1131F2030404040E1F700C000002BC0833049F549
S1131F3084E68093380481E080933B0485B1940166
S1131F400090320402C0220F331F0A94E2F7209556
S1131F50822385B98EEA93E00E94EB111092480423
S1131F601092470460913B04809138040E94E4007D
S1131F708FEF93EC29E0815090402040E1F700C0BE
S1131F8000008091450490914604019709F058C0DF
S1131F9080914F04843049F584E68093360481E0CF
S1131FA08093390425B1C40100903B0102C0880F1D
S1131FB0991F0A94E2F7822B85B98AEB93E00E9479
S1131FC0EB111092460410924504609139048091FB
S1131FD036040E9422013FEF43EC89E03150404037
S1131FE08040E1F700C000002BC0853049F584E64D
S1131FF08093360481E08093390485B19401009084
S11320003B0102C0220F331F0A94E2F7209582237A
S113201085B985EC93E00E94EB111092460410926E
S1132020450460913904809136040E9422019FEF97
S113203023EC39E0915020403040E1F700C000002B
S11320404FEF87EB9BE0415080409040E1F700C0A8
S113205000000C94840682130C9474070C9471078A
S11320601F920F920FB60F9211242F933F934F9309
S11320705F936F937F938F939F93AF93BF93EF93EC
S1132080FF9380912B0490912C0420910C043091A7
S11320900D048217930734F4019690932C048093D3
S11320A02B0413C060E080E00E94030110922C0412
S11320B010922B0410923A041092370481E080931A
S11320C0310481E093E00E94EB11FF91EF91BF9105
S11320D0AF919F918F917F916F915F914F913F91BC
S11320E02F910F900FBE0F901F9018951F920F9273
S11320F00FB60F9211242F933F934F935F936F93D7
S11321007F938F939F93AF93BF93EF93FF938091AC
S11321102D0490912E0420910A0430910B0482170F
S1132120930734F4019690932E0480932D0413C0E6
S113213060E080E00E94E40010922E0410922D04CE
S113214010923B041092380481E08093300481EDB6
S113215093E00E94EB11FF91EF91BF91AF919F919A
S11321608F917F916F915F914F913F912F910F903C
S11321700FBE0F901F9018951F920F920FB60F92DB
S113218011242F933F934F935F936F937F938F9378
S11321909F93AF93BF93EF93FF9399B180913A01CB
S11321A029B120933A01892784FF2CC08091290406
S11321B090912A042091080430910904821793070E
S11321C034F4019690932A04809329041BC060E0A0
S11321D080E00E94220110922A0410922904109295
S11321E039041092360481E080932F041F928F9358
S11321F08BED93E09F938F930E94D5110F900F90D6
S11322000F900F90FF91EF91BF91AF919F918F919C
S11322107F916F915F914F913F912F910F900FBEDE
S11322200F901F9018951F920F920FB60F921124C2
S11322302F933F934F935F936F937F938F939F93CA
S1132240AF93BF93CF93DF93EF93FF93C6B1809186
S11322503901C82786B180933901C3FF42C0339B3B
S113226030C060E080E00E94E40010922E041092DE
S11322702D0410923B041092380481ED93E00E94E7
S1132280EB1181E090E090930F0480930E04D1E071
S1132290D093300410922804109227041F92DF93E5
S11322A089EE93E09F938F930E94D511D0933004CD
S11322B010922804109227040F900F900F900F9003
S11322C010C010920F0410920E041F921F9289EEF8
S11322D093E09F938F930E94D5110F900F900F90CE
S11322E00F90C5FF13C0359B11C0809141048F5FCF
S11322F0809341041F928F9386EF93E09F938F9373
S11323000E94D5110F900F900F900F90FF91EF91B5
S1132310DF91CF91BF91AF919F918F917F916F91F9
S11323205F914F913F912F910F900FBE0F901F908F
S113233018951F93FC0199278827BC01E8941191F3
S11323401032E9F3193010F01E30C8F31B3251F08B
S11323501D3249F4689406C00E94C011610F711DBA
S1132360811D911D119110531A30B0F33EF49095D4
S11323708095709561957F4F8F4F9F4F1F91089562
S1132380592F482F372F262F660F771F881F991F25
S1132390660F771F881F991F620F731F841F951F75
S11323A0660F771F881F991F0895A0E0B0E0EBED3A
S11323B0F1E10C94BC14AE014B5F5F4FFA016191E3
S11323C07191AF0180917304909174040E941B1267
S11323D0E2E00C94D8140F931F93CF93DF93E09112
S11323E07304F0917404238121FF1BC08C01D0E09D
S11323F0C0E0F80181918F016091730470917404BD
S1132400DB011896ED91FC911997882331F0099519
S1132410892B79F3DFEFCFEFECCF8AE00995892B95
S113242019F08FEF9FEF02C08D2F9C2FDF91CF917A
S11324301F910F910895ABE0B0E0E1E2F2E10C945A
S1132440AC146C017B018A01FC0117821682838122
S113245081FFCCC1CE0101963C01F6019381F701C5
S113246093FD859193FF81917F01882309F4BAC17B
S1132470853239F493FD859193FF81917F018532F3
S113248029F4B60190E00E941214E7CF912C212C7C
S1132490312CFFE1F315D8F08B3279F038F4803227
S11324A079F08332A1F4232D20611DC08D3261F0B7
S11324B0803369F4232D216016C0832D8260382E69
S11324C0E32DE4603E2E2AC0F32DF8601DC037FCD6
S11324D02DC020ED280F2A3040F08E32B9F436FC9E
S11324E081C1232D2064322E19C036FE06C08AE035
S11324F0989E200D1124922E11C0EAE02E9E200DEC
S11325001124222EF32DF0623F2E08C08C3621F4C4
S1132510832D8068382E02C0883641F4F70193FD7C
S1132520859193FF81917F018111B3CF982F9F7D76
S11325309554933028F40C5F1F4F9FE399830DC08B
S1132540833631F0833771F0833509F059C021C0E7
S1132550F801808189830E5F1F4F88248394912C16
S1132560530113C02801F2E04F0E511CF801A08062
S1132570B18036FE03C0692D70E002C06FEF7FEFBB
S1132580C5010E9407144C018201F32DFF773F2EF1
S113259016C0280122E0420E511CF801A080B1802F
S11325A036FE03C0692D70E002C06FEF7FEFC501F6
S11325B00E94FC134C01F32DF0683F2E820133FC82
S11325C01BC0822D90E088169906B0F4B60180E213
S11325D090E00E9412142A94F4CFF50137FC8591FF
S11325E037FE81915F01B60190E00E941214211020
S11325F02A9421E0821A91088114910471F7E8C0A9
S1132600843611F0893641F5F80137FE07C0608140
S11326107181828193810C5F1F4F08C06081718139
S1132620072E000C880B990B0E5F1F4FF32DFF76BE
S11326303F2E97FF09C090958095709561957F4FC7
S11326408F4F9F4FF0683F2E2AE030E0A3010E9495
S11326504E14882E861845C0853731F4232D2F7EDD
S1132660B22E2AE030E025C0932D997FB92E8F3603
S1132670C1F018F4883579F0B5C0803719F088377F
S113268021F0B0C0E92FE061BE2EB4FE0DC0FB2DD9
S1132690F460BF2E09C034FE0AC0292F2660B22E72
S11326A006C028E030E005C020E130E002C020E1AF
S11326B032E0F801B7FE07C06081718182819381A5
S11326C00C5F1F4F06C06081718180E090E00E5F57
S11326D01F4FA3010E944E14882E8618FB2DFF77EE
S11326E03F2E36FE0DC0232D2E7FA22E891458F4C2
S11326F034FE0BC032FC09C0832D8E7EA82E05C08B
S1132700B82CA32C03C0B82C01C0B92CA4FE0FC054
S1132710FE01E80DF11D8081803321F49A2D997E0C
S1132720A92E09C0A2FE06C0B394B39404C08A2D96
S1132730867809F0B394A3FC11C0A0FE06C0B214BD
S113274088F4280C922C9B180EC0B21460F4B601C5
S113275080E290E00E941214B394F7CFB21418F4FC
S11327602B1802C0982C212CA4FE10C0B60180E3C3
S113277090E00E941214A2FE17C0A1FC03C088E7D7
S113278090E002C088E590E0B6010CC08A2D8678FE
S113279059F0A1FE02C08BE201C080E2A7FC8DE2E9
S11327A0B60190E00E941214891438F4B60180E353
S11327B090E00E9412149A94F7CF8A94F301E80DE2
S11327C0F11D8081B60190E00E9412148110F5CFB2
S11327D0222009F442CEB60180E290E00E94121455
S11327E02A94F6CFF6018681978102C08FEF9FEF7E
S11327F02B96E2E10C94C814FC01059061507040E2
S11328000110D8F7809590958E0F9F1F0895FC01B5
S11328106150704001900110D8F7809590958E0F0B
S11328209F1F08950F931F93CF93DF93FB01238181
S113283021FD03C08FEF9FEF2CC022FF16C04681FD
S11328405781248135814217530744F4A081B18113
S11328509D012F5F3F4F318320838C9326813781E5
S11328602F5F3F4F3783268314C08B01EC01FB019C
S11328700084F185E02D0995892BE1F6D80116969F
S11328808D919C911797019617969C938E9316970A
S1132890CE01DF91CF911F910F910895FA01AA27DC
S11328A0283051F1203181F1E8946F936E7F6E5F8F
S11328B07F4F8F4F9F4FAF4FB1E03ED0B4E03CD03D
S11328C0670F781F891F9A1FA11D680F791F8A1F20
S11328D0911DA11D6A0F711D811D911DA11D20D087
S11328E009F468943F912AE0269F11243019305D41
S11328F03193DEF6CF010895462F4770405D419332
S1132900B3E00FD0C9F7F6CF462F4F70405D4A337E
S113291018F0495D31FD4052419302D0A9F7EACF46
S1132920B4E0A6959795879577956795BA95C9F775
S113293000976105710508959B01AC010A2E069468
S11329405795479537952795BA95C9F7620F731F21
S1132950841F951FA01D08952F923F924F925F925E
S11329606F927F928F929F92AF92BF92CF92DF929B
S1132970EF92FF920F931F93CF93DF93CDB7DEB700
S1132980CA1BDB0B0FB6F894DEBF0FBECDBF099494
S11329902A88398848885F846E847D848C849B84EB
S11329A0AA84B984C884DF80EE80FD800C811B81F9
S11329B0AA81B981CE0FD11D0FB6F894DEBF0FBE28
S10D29C0CDBFED010895F894FFCF98
S11329CABC02900100000000000084039001000092
S11329DA0000DC05C409000040060000C409C4095B
S11329EA0000000078009600D601B3010000080236
S11329FA2C0100000000030201FFFF020705040086
S1132A0A000002000000007100000000004C617424
S1132A1A206F6E20004C6174206F6666200050752A
S1132A2A6C206F6E200050756C206F666620004D16
S1132A3A656E206F6E20004D656E206F66662000FD
S1132A4A4176616E7A61722025642070756C736FA9
S1132A5A73200A0041627269656E646F2070756C36
S1132A6A676172200043657272616E646F207075CB
S1132A7A6C676172200041627269656E646F206CD2
S1132A8A6174200043657272616E646F206C6174B4
S1132A9A200041627269656E646F206D656E200064
S1132AAA43657272616E646F206D656E20004653D1
S1132ABA522070756C3A202564200A00465352202D
S1132ACA6D656E3A202564200A0049522070756C9F
S1132ADA3A202564200A00496E6963696F202564D7
S1132AEA200A00496E69636961722063616C6962D4
S1132AFA200050756C206C6973746F20004C6174EB
S1132B0A206C6973746F20004D656E206C69737450
S1132B1A6F20004944204D6F763A202564200A002C
S1132B2A50503A202564200A00504C3A202564204B
S1132B3A0A00504D3A202564200A00486F6C61202F
S1132B4A7573756172696F200A200056616D6F731F
S1132B5A20612063616C69627261722000572031BE
S1132B6A2000496E20312000496E206D20004966FC
S1132B7A20004D6F76203020004D656E20656E2052
S1132B8A706F733A202564200A004C617420656EC4
S1132B9A20706F733A202564200A0050756C2065F2
S1132BAA6E20706F733A202564200A00504C4D2021
S1132BBA6C6973746F20004D656E20636F6D6520B8
S1132BCA0050756C20636F6D652000496E203620B5
S1132BDA00496E206D656E2000496E206C61742078
S1132BEA00496E2070756C200050756C6761723AEA
S1132BFA202564200A004C61746572616C3A2025B0
S1132C0A64200A004D656E697175653A2025642051
S1132C1A0A00467565727A612050756C3A202564FB
S1132C2A200A00467565727A61204D656E3A202540
S1132C3A64200A004C6973746F73200057616974C5
S1132C4A206E6577200041627269722070756C6724
S1132C5A617220004365727261722070756C6761DB
S1132C6A7220004162726972206C617420004365AB
S1132C7A72726172206C61742000416272697220FE
S1132C8A6D656E2000436572726172206D656E20F7
S1132C9A004C617420636F6D6520004D656E20637E
S1132CAA6F6D65202564200A0046432076616C3ADC
S1132CBA202564200A004576656E746F3A202564DF
S1072CCA200A0000D8
S9030000FC
