:100000000C9434000C9451000C9451000C94510049
:100010000C9451000C9451000C9451000C9451001C
:100020000C9451000C9451000C9451000C9451000C
:100030000C9451000C9451000C9451000C945100FC
:100040000C9451000C9451000C9451000C945100EC
:100050000C9451000C9451000C9451000C945100DC
:100060000C9451000C94510011241FBECFEFD8E026
:10007000DEBFCDBF11E0A0E0B1E0E8EBF3E002C0ED
:1000800005900D92A430B107D9F721E0A4E0B1E0CA
:1000900001C01D92A830B207E1F70E948A010C94BA
:1000A000DA010C94000091E0329B90E0339902C099
:1000B00080E001C082E0349902C020E001C024E069
:1000C000980F892F820F90E00895009701F525B1D0
:1000D00081E090E0BC010090000102C0660F771F34
:1000E0000A94E2F7AC010090010102C0440F551FD1
:1000F0000A94E2F7462B0090020102C0880F991F74
:100100000A94E2F7842B8095822385B90895813083
:10011000910511F545B181E090E0BC01009000012E
:1001200002C0660F771F0A94E2F79C01009001015C
:1001300002C0220F331F0A94E2F7262B20952423B6
:1001400025B925B10090020102C0880F991F0A94B9
:10015000E2F7822B85B908958230910511F545B1FA
:1001600081E090E0BC010090000102C0660F771FA3
:100170000A94E2F79C010090020102C0220F331F93
:100180000A94E2F7262B2095242325B925B1009067
:10019000010102C0880F991F0A94E2F7822B85B9EA
:1001A00008958330910519F535B181E090E0AC01F7
:1001B0000090000102C0440F551F0A94E2F7242F5B
:1001C0002095232325B925B1AC010090010102C07F
:1001D000440F551F0A94E2F70090020102C0880FF5
:1001E000991F0A94E2F7842B822B85B908958430F5
:1001F000910511F545B181E090E0BC01009001014D
:1002000002C0660F771F0A94E2F79C01009002017A
:1002100002C0220F331F0A94E2F7262B20952423D5
:1002200025B925B10090000102C0880F991F0A94DA
:10023000E2F7822B85B908958530910519F535B11E
:1002400081E090E0AC010090010102C0440F551F15
:100250000A94E2F7242F2095232325B925B1AC0178
:100260000090000102C0440F551F0A94E2F700906D
:10027000020102C0880F991F0A94E2F7842B822B97
:1002800085B908958630910519F535B181E090E082
:10029000AC010090020102C0440F551F0A94E2F71E
:1002A000242F2095232325B925B1AC01009000010E
:1002B00002C0440F551F0A94E2F70090010102C0EA
:1002C000880F991F0A94E2F7842B822B85B9089531
:1002D0000797F9F435B181E090E0BC01009000018E
:1002E00002C0660F771F0A94E2F7AC01009001018B
:1002F00002C0440F551F0A94E2F7262F242B232B0C
:100300000090020102C0880F991F0A94E2F7822B25
:1003100085B90895F8942FEF83EC99E0215080403F
:100320009040E1F700C0000017B888E384B988B1B5
:100330008C6188B985B1877C85B97894C5E0D1E0B6
:100340002FEF84E39CE0215080409040E1F700C013
:1003500000000E94530088830E94530089830E94FA
:1003600053008A8398812981921308C0891303C09E
:10037000809304010DC0909304010AC0891317C033
:100380008093040105C08093040102C020930401FE
:100390008091040190E00E9465002FEF85EA9EE0C5
:1003A000215080409040E1F700C00000C9CF821387
:0803B000EDCFE9CFF894FFCF77
:0403B8000504030035
:00000001FF
