:100000000C9434000C94DA0F0C9428100C945100CA
:100010000C9451000C946E100C9451000C945100EF
:100020000C9451000C9451000C9451000C9451000C
:100030000C9451000C9451000C9451000C945100FC
:100040000C9451000C9451000C9476000C945100C7
:100050000C9451000C9451000C9451000C945100DC
:100060000C9451000C94510011241FBECFEFD8E026
:10007000DEBFCDBF14E0A0E0B1E0E2E1F8E202C0F3
:1000800005900D92AE30B107D9F724E0AEE0B4E0B0
:1000900001C01D92AF37B207E1F70E9487050C94AB
:1000A00007140C940000519A50981092C00088E9EF
:1000B0008093C10086E08093C2001092C50087E65D
:1000C0008093C4008EE391E090937C0480937B0442
:1000D0000895E0ECF0E0908195FFFDCF8093C6009D
:1000E00008950E94690080E090E008951F920F92A9
:1000F0000FB60F9211242F933F934F935F936F93FB
:100100007F938F939F93AF93BF93EF93FF938091D0
:10011000C60090914C049923B1F18E3359F090911F
:100120004B04911125C080538093570481E0809344
:100130004B042EC0E0915804F0E0E75AFB4F1082C8
:100140001092580410924C0410924B0489E594E0EC
:100150000E94BD107093560460935504809153041F
:10016000909154040196909354048093530410C0CA
:10017000E091580491E09E0F90935804F0E0E75A04
:10018000FB4F808305C08C3319F481E080934C04CD
:10019000FF91EF91BF91AF919F918F917F916F915F
:1001A0005F914F913F912F910F900FBE0F901F9035
:1001B000189583E084BD82E085BD81E08093800056
:1001C0008AE080938100089587BD613061F41092C8
:1001D00028041092270484B5806884BD8CE491E0E3
:1001E0000E940F11089584B58F7784BD80913304E8
:1001F00090913404909328048093270484E591E03F
:100200000E940F11089588BD613061F410922A0494
:100210001092290484B5806284BD8DE591E00E942E
:100220000F11089584B58F7D84BD80913504909120
:10023000360490932A048093290485E691E00E9475
:100240000F11089590E090938900809388006130A9
:1002500071F41092260410922504E0E8F0E0808109
:10026000806880838EE691E00E940F110895E0E897
:10027000F0E080818F778083809131049091320407
:10028000909326048093250486E791E00E940F1145
:10029000089580E480937C0087E080937A00109238
:1002A0007B000895ECE7F0E09081907F908390814F
:1002B000892B8083EAE7F0E08081806880838081F9
:1002C00080648083808186FDFDCFEAE7F0E0808155
:1002D0008F77808380917800909179000895809144
:1002E000530490915404019709F024C110925404CE
:1002F0001092530480915704811121C081E08093B2
:100300003D0481E090E090935204809351048091E9
:1003100055049091560480931604909317049F936C
:100320008F938FE791E09F938F930E94F91083E959
:1003300091E00E940F110F900F900F900F908091FD
:1003400057048130A1F410923D0481E090E0909335
:1003500052048093510480915504909156049093D7
:1003600017048093160484EA91E00E940F11809193
:1003700057048230A9F481E080933C0481E090E04E
:100380009093500480934F048091550490915604AB
:10039000909315048093140485EB91E00E940F1153
:1003A000809157048330A1F410923C0481E090E0E6
:1003B0009093500480934F0480915504909156047B
:1003C000909315048093140483EC91E00E940F1124
:1003D000809157048430A9F481E080933B0481E04C
:1003E00090E090934E0480934D0480915504909139
:1003F0005604909313048093120481ED91E00E94BF
:100400000F11809157048530A1F410923B0481E0D4
:1004100090E090934E0480934D0480915504909108
:100420005604909313048093120480EE91E00E948E
:100430000F11809157048630F1F480911E0490E0F2
:100440000E94520180931C0490931D049F938F93EC
:100450008FEE91E09F938F930E94F9102FEF86E724
:1004600091E0215080409040E1F700C000000F90E3
:100470000F900F900F90809157048730F1F4809186
:10048000380190E00E94520180931A0490931B045B
:100490009F938F938DEF91E09F938F930E94F9101C
:1004A0002FEF86E791E0215080409040E1F700C0B7
:1004B00000000F900F900F900F908091570488309C
:1004C000F1F48091370190E00E945201809318046A
:1004D000909319049F938F938BE092E09F938F9357
:1004E0000E94F9102FEF86E791E021508040904064
:1004F000E1F700C000000F900F900F900F908091D7
:1005000057048930B9F4809148041F928F9389E190
:1005100092E09F938F930E94F9102FEF86E791E06E
:10052000215080409040E1F700C000000F900F90F4
:100530000F900F900895E9E6F0E08081816080835C
:1005400080818D7F8083E89A808184608083808130
:10055000877F8083E99AE8E6F0E080818460808389
:10056000EDE6F0E0808180618083089585E292E08D
:100570000E940F1180911E0490E00E9452019093FE
:100580001D0480931C0428EB3BE030931704209358
:10059000160489970CF042C010923D0488E78093BE
:1005A000400481E0809343042BB181E090E000900F
:1005B0003B0102C0880F991F0A94E2F780958223BD
:1005C0008BB98FE39CE90197F1F700C000006091BF
:1005D0004304809140040E9403018FE39CE901974A
:1005E000F1F700C0000080911E0490E00E945201CB
:1005F0008997CCF360E080E00E94030110924004F0
:10060000109243041092360410923504109217048D
:100610001092160484E392E00E940F118091380139
:1006200090E00E94520190931B0480931A0428EBDF
:100630003BE030931504209314048997B4F510928D
:100640003C0482E880933F0481E08093420425B11A
:1006500081E090E000903A0402C0880F991F0A944C
:10066000E2F78095822385B96091420480913F042E
:100670000E94E4008091380190E00E945201899725
:10068000CCF360E080E00E94E40010923F041092FE
:100690004204109234041092330410921504109204
:1006A000140482E492E00E940F118091370190E0DF
:1006B0000E945201909319048093180428EB3BE0A8
:1006C0003093130420931204C3970CF049C0109286
:1006D0003B0488E780933E0481E08093410425B188
:1006E00081E090E000903A0102C0880F991F0A94BF
:1006F000E2F78095822385B96091410480913E04A0
:100700000E9422018091370190E00E945201C3971C
:10071000CCF360E080E00E94220110923E0410922F
:10072000410410923204109231041092130410927A
:1007300012048FE492E00E940F118FE19EE4019772
:10074000F1F700C000008DE592E00E940F119FEFCD
:1007500020E782E0915020408040E1F700C0000097
:100760001092300410922F0410922E0410922D0437
:1007700010922C0410922B04109239041092380419
:10078000109237040895CF93DF9381E01B9B80E0A4
:100790001C9902C020E001C022E01D9902C090E037
:1007A00001C094E0820F890FC82FD0E01F928F9371
:1007B00088E692E09F938F930E94F9100F900F901C
:1007C0000F900F90CE01DF91CF910895E0914504F5
:1007D000F0E0EE0FFF1FEC5DFE4F808191812091D4
:1007E0002F043091300428173907FCF4821B930B37
:1007F000909317048093160421E020933D0481E038
:1008000090E0909324048093230432E830934004D2
:10081000209343042BB100903B0102C0880F991F25
:100820000A94E2F7822B8BB945C08217930744F5EF
:10083000821B930B9C0122F422273327281B390BA0
:10084000309317042093160410923D048FEF9FEF0E
:1008500090932404809323048CE88093400481E0E7
:10086000809343042BB181E090E000903B0102C0F3
:10087000880F991F0A94E2F7809582238BB91AC0DA
:1008800082179307B9F4109217041092160410926D
:100890003D0410924004109243042BB181E090E09B
:1008A00000903B0102C0880F991F0A94E2F78095DF
:1008B00082238BB9E0914504F0E0EE0FFF1FEE5E5E
:1008C000FE4F8081918120912D0430912E042817B4
:1008D0003907FCF4821B930B909315048093140446
:1008E00021E020933C0481E090E0909322048093E7
:1008F00021043CE830933F042093420425B100904A
:100900003A0402C0880F991F0A94E2F7822B85B936
:1009100045C08217930744F5821B930B9C0122F478
:1009200022273327281B390B3093150420931404F6
:1009300010923C048FEF9FEF909322048093210448
:1009400086E980933F0481E08093420425B181E0F1
:1009500090E000903A0402C0880F991F0A94E2F7D1
:100960008095822385B91AC082179307B9F4109233
:1009700015041092140410923C0410923F0410923B
:10098000420425B181E090E000903A0402C0880F53
:10099000991F0A94E2F78095822385B9E091450476
:1009A000F0E0EE0FFF1FE050FF4F8081918120911A
:1009B0002B0430912C0428173907FCF4821B930B6D
:1009C000909313048093120421E020933B0481E070
:1009D00090E09093200480931F043CE830933E0401
:1009E0002093410425B100903A0102C0880F991F5D
:1009F0000A94E2F7822B85B945C08217930744F524
:100A0000821B930B9C0122F422273327281B390BCE
:100A1000309313042093120410923B048FEF9FEF46
:100A20009093200480931F0488E780933E0481E024
:100A30008093410425B181E090E000903A0102C02A
:100A4000880F991F0A94E2F78095822385B91AC00E
:100A500082179307B9F410921304109212041092A3
:100A60003B0410923E041092410425B181E090E0D5
:100A700000903A0102C0880F991F0A94E2F780950E
:100A8000822385B9809117048F93809116048F93E8
:100A900085E792E09F938F930E94F9108FE19EE487
:100AA0000197F1F700C00000809115048F938091A9
:100AB00014048F938EE792E09F938F930E94F91016
:100AC0008FE19EE40197F1F700C0000080911304CC
:100AD0008F93809112048F9387E892E09F938F9376
:100AE0000E94F9108FE19EE40197F1F700C0000029
:100AF0001092390410923804109237048DB79EB7C3
:100B00000C960FB6F8949EBF0FBE8DBF0895F89453
:100B100080E387B982EE8AB987E084B9439A85B1C8
:100B2000886385B9449845988BB18C618BB98BB13A
:100B30008F718BB985B1887F85B90E9449010E9468
:100B4000D9000E949B020E9453007894CFE0D4E029
:100B500001E010E00F2EF6E4AF2EF3E0BF2EF02DF3
:100B60000F2EF3E58F2EF3E09F2EF02D0F2EFFE5D5
:100B70006F2EF3E07F2EF02D0F2EFCE64F2EF3E0CC
:100B80005F2EF02D2FEF84E39CE0215080409040B9
:100B9000E1F700C000002FEF84E39CE0215080408B
:100BA0009040E1F700C000000E946F01809149046D
:100BB000882339F080914A04823009F482C00C9471
:100BC000AD0E80E992E09F938F930E94F9102FEF72
:100BD00084E39CE0215080409040E1F700C0000099
:100BE00082EA92E00E940F112FEF84E39CE02150F3
:100BF00080409040E1F700C00000A80100903D0156
:100C000002C0440F551F0A94E2F70F900F9031E095
:100C100008C086B190E084239523892B21F030937E
:100C20004A0420914A042130A1F784EB92E00E940B
:100C30000F110E94B60281E08093490488E08093FE
:100C400044046894FF24F1F828C086B190E0822320
:100C50009323892BA1F586B190E084239523892BDA
:100C600071F528B1C8010090360102C0880F991FA4
:100C70000A94E2F7822B88B928B1C80100903C01A0
:100C800002C0880F991F0A94E2F7822B88B9F0926C
:100C90004A048BEB92E00E940F1160914A04980184
:100CA00000903D0102C0220F331F0A94E2F7A80111
:100CB00000903C0102C0440F551F0A94E2F76230D5
:100CC00021F60F2EFDE7CF2EF3E0DF2EF02D0F2EB5
:100CD000FEE8EF2EF3E0FF2EF02D0F2EF9EF2F2E72
:100CE000F2E03F2EF02D80EC92E00E940F118FE198
:100CF0009EE40197F1F700C000000E94C3038883BF
:100D00000E94C30389830E94C3038A839881298137
:100D1000921308C0891303C080930E040EC09093F1
:100D20000E040BC089130C94D50F80930E0405C0DC
:100D300080930E0402C020930E0480910E048093D1
:100D400045049091440489130CC028B1C801009057
:100D5000360102C0880F991F0A94E2F7822B88B9E6
:100D6000F2C7913021F02DEF290F223018F48111B4
:100D700008C013C0813019F08350823070F4992379
:100D800061F028B1C8010090360102C0880F991F98
:100D90000A94E2F7822B88B9D6C786EC92E00E94CB
:100DA0000F118FE19EE40197F1F700C000008091E0
:100DB00045048093440498B198010090360102C024
:100DC000220F331F0A94E2F7822F8095892388B976
:100DD00060E080E00E94030160E080E00E94E400A7
:100DE00060E080E00E9422010E94E60373E012C0EE
:100DF00086B190E082239323892BF1F086B190E0B5
:100E000084239523892BC1F088B14095842388B928
:100E100070934A0460914A04980100903D0102C019
:100E2000220F331F0A94E2F7A80100903C0102C090
:100E3000440F551F0A94E2F76330D1F68CEC92E030
:100E40000E940F118FE19EE40197F1F700C00000AE
:100E5000809145048111D3C080ED92E00E940F1172
:100E60008FE19EE40197F1F700C000008091160425
:100E700090911704892BE1F1609143048091400423
:100E80000E94030180913904813069F09FEF29EFBE
:100E900080E0915020408040E1F700C00000809148
:100EA0003904813099F740912304509124048091B2
:100EB000290490912A04489F9001499F300D589F22
:100EC000300D112480912F0490913004820F931FD4
:100ED0009093300480932F049F938F9387ED92E03B
:100EE0009F938F930E94F9100F900F900F900F9087
:100EF0008091140490911504892BE1F160914204D2
:100F000080913F040E94E40080913804813069F0B0
:100F10009FEF29EF80E0915020408040E1F700C032
:100F2000000080913804813099F74091210450915C
:100F300022048091270490912804489F9001499FA2
:100F4000300D589F300D112480912D0490912E0466
:100F5000820F931F90932E0480932D049F938F9361
:100F600088EE92E09F938F930E94F9100F900F905C
:100F70000F900F908091120490911304892BD1F15E
:100F80006091410480913E040E94220180913704C7
:100F9000813069F09FEF29EF80E091502040804040
:100FA000E1F700C0000080913704813099F740914B
:100FB0001F04509120048091250490912604489F9D
:100FC0009001499F300D589F300D112480912B04C2
:100FD00090912C04820F931F90932C0480932B04E8
:100FE0009F938F933F922F920E94F9100F900F9032
:100FF0000F900F908DE592E00E940F11F4C58130A3
:1010000009F0F9C08091160490911704892B09F416
:101010004BC060914304809140040E9403011BC0B7
:1010200080911E0490E00E945201853691059CF04B
:1010300060E080E00E9403011092360410923504B3
:10104000109243041092400491E0909339048AE096
:1010500093E00E940F1180913904813009F740918B
:101060002304509124048091290490912A04489FDC
:101070009001499F300D589F300D112480912F040D
:1010800090913004820F931F9093300480932F042B
:101090009F938F9387ED92E09F938F930E94F91017
:1010A0000F900F900F900F90809114049091150461
:1010B000892B09F44BC06091420480913F040E9447
:1010C000E4001BC08091380190E00E9452018536F7
:1010D00091059CF060E080E00E94E40010923404EE
:1010E000109233041092420410923F0421E02093A6
:1010F000380484E193E00E940F118091380481301C
:1011000009F7409121045091220480912704909185
:101110002804489F9001499F300D589F300D11249D
:1011200080912D0490912E04820F931F90932E0492
:1011300080932D049F938F9388EE92E09F938F93DB
:101140000E94F9100F900F900F900F908091120451
:1011500090911304892B09F449C060914104809156
:101160003E040E9422011BC08091370190E00E9442
:101170005201853691059CF060E080E00E942201DA
:1011800010923204109231041092410410923E04E5
:1011900081E0809337048EE193E00E940F118091EB
:1011A0003704813009F740911F0450912004809149
:1011B000250490912604489F9001499F300D589F27
:1011C000300D112480912B0490912C04820F931FD9
:1011D00090932C0480932B049F938F933F922F9294
:1011E0000E94F9100F900F900F900F908DE592E0F4
:1011F0000E940F11F8C4823009F0B7C08091160424
:1012000090911704892BB1F180ED97E0909317042A
:101210008093160460914304809140040E9403016E
:1012200080911E0490E00E9452018897CCF360E008
:1012300080E00E940301109236041092350410924F
:1012400043041092400481E0809339048AE093E0E3
:101250000E940F111092300410922F041F921F92BF
:1012600087ED92E09F938F930E94F9100F900F905B
:101270000F900F908091140490911504892BB1F177
:1012800080ED97E0909315048093140460914204DC
:1012900080913F040E94E4008091380190E00E9418
:1012A00052018897CCF360E080E00E94E400109245
:1012B0003404109233041092420410923F0481E0EF
:1012C0008093380484E193E00E940F1110922E0461
:1012D00010922D041F921F9288EE92E09F938F939D
:1012E0000E94F9100F900F900F900F9080911204B0
:1012F00090911304892BA1F180ED97E09093130452
:10130000809312046091410480913E040E94220166
:101310008091370190E00E945201C297CCF360E0C7
:1013200080E00E9422011092320410923104109247
:10133000410410923E0481E0809337048EE193E0F3
:101340000E940F1110922C0410922B041F921F92D6
:101350003F922F920E94F9100F900F900F900F90D4
:101360008DE592E00E940F113EC4833009F0CCC09D
:101370008091160490911704892B09F44AC060915A
:101380004304809140040E9403011AC080911E040E
:1013900090E00E94520189979CF060E080E00E94FA
:1013A00003011092360410923504109243041092F7
:1013B000400491E0909339048AE093E00E940F1179
:1013C00080913904813011F7409123045091240415
:1013D0008091290490912A04489F9001499F300DE3
:1013E000589F300D112480912F0490913004820F6A
:1013F000931F9093300480932F049F938F9387EDD6
:1014000092E09F938F930E94F9100F900F900F908E
:101410000F908091140490911504892BB1F180ED07
:1014200097E0909315048093140460914204809196
:101430003F040E94E4008091380190E00E94520134
:101440008897CCF360E080E00E94E40010923404BE
:10145000109233041092420410923F0481E0809372
:10146000380484E193E00E940F1110922E04109230
:101470002D041F921F9288EE92E09F938F930E94FB
:10148000F9100F900F900F900F908091120490918F
:101490001304892BA1F180ED97E0909313048093BE
:1014A00012046091410480913E040E9422018091C7
:1014B000370190E00E945201C297CCF360E080E0D7
:1014C0000E942201109232041092310410924104C1
:1014D00010923E0481E0809337048EE193E00E94F5
:1014E0000F1110922C0410922B041F921F923F9206
:1014F0002F920E94F9100F900F900F900F908DE592
:1015000092E00E940F116FC3843009F0F6C0809101
:10151000160490911704892B09F44AC06091430482
:10152000809140040E9403011AC080911E0490E043
:101530000E94520189979CF060E080E00E940301C4
:101540001092360410923504109243041092400415
:1015500091E0909339048AE093E00E940F1180910A
:101560003904813011F74091230450912404809173
:10157000290490912A04489F9001499F300D589F5B
:10158000300D112480912F0490913004820F931F0D
:101590009093300480932F049F938F9387ED92E074
:1015A0009F938F930E94F9100F900F900F900F90C0
:1015B0008091140490911504892B09F44AC060911C
:1015C000420480913F040E94E4001AC080913801D7
:1015D00090E00E94520189979CF060E080E00E94B8
:1015E000E4001092340410923304109242041092DA
:1015F0003F0421E02093380484E193E00E940F111E
:1016000080913804813011F74091210450912204D7
:101610008091270490912804489F9001499F300DA4
:10162000589F300D112480912D0490912E04820F2B
:10163000931F90932E0480932D049F938F9388EE95
:1016400092E09F938F930E94F9100F900F900F904C
:101650000F908091120490911304892B09F448C0D3
:101660006091410480913E040E9422011AC0809141
:10167000370190E00E945201C3979CF060E080E047
:101680000E942201109232041092310410924104FF
:1016900010923E0481E0809337048EE193E00E9433
:1016A0000F1180913704813011F740911F04509140
:1016B00020048091250490912604489F9001499F21
:1016C000300D589F300D112480912B0490912C04E3
:1016D000820F931F90932C0480932B049F938F93DE
:1016E0003F922F920E94F9100F900F900F900F9041
:1016F0008DE592E00E940F1176C2853009F0BDC0E1
:101700008091160490911704892BE1F160914304B4
:10171000809140040E94030180913904813069F076
:101720009FEF29EF80E0915020408040E1F700C01A
:10173000000080913904813099F740912304509141
:1017400024048091290490912A04489F9001499F84
:10175000300D589F300D112480912F04909130044A
:10176000820F931F9093300480932F049F938F9345
:1017700087ED92E09F938F930E94F9100F900F9046
:101780000F900F908091140490911504892BB1F162
:1017900080ED97E0909315048093140460914204C7
:1017A00080913F040E94E4008091380190E00E9403
:1017B00052018897CCF360E080E00E94E400109230
:1017C0003404109233041092420410923F0481E0DA
:1017D0008093380484E193E00E940F1110922E044C
:1017E00010922D041F921F9288EE92E09F938F9388
:1017F0000E94F9100F900F900F900F90809112049B
:1018000090911304892BA1F180ED97E0909313043C
:10181000809312046091410480913E040E94220151
:101820008091370190E00E945201C297CCF360E0B2
:1018300080E00E9422011092320410923104109232
:10184000410410923E0481E0809337048EE193E0DE
:101850000E940F1110922C0410922B041F921F92C1
:101860003F922F920E94F9100F900F900F900F90BF
:101870008DE592E00E940F11B6C1863009F0F4C0E8
:1018800088E293E00E940F118FE19EE40197F1F747
:1018900000C000008091160490911704892B09F470
:1018A00046C08EE293E00E940F1160914304809144
:1018B00040040E94030180913904813069F09FEF58
:1018C00029EF80E0915020408040E1F700C0000007
:1018D00080913904813099F7409123045091240478
:1018E0008091290490912A04489F9001499F300DCE
:1018F000589F300D112480912F0490913004820F55
:10190000931F9093300480932F049F938F9387EDC0
:1019100092E09F938F930E94F9108FE19EE40197CC
:10192000F1F700C000000F900F900F900F90809182
:10193000140490911504892B09F446C086E393E0C2
:101940000E940F116091420480913F040E94E400C4
:1019500080913804813069F09FEF29EF80E0915049
:1019600020408040E1F700C00000809138048130C1
:1019700099F740912104509122048091270490917D
:101980002804489F9001499F300D589F300D112425
:1019900080912D0490912E04820F931F90932E041A
:1019A00080932D049F938F9388EE92E09F938F9363
:1019B0000E94F9108FE19EE40197F1F700C000004A
:1019C0000F900F900F900F9080911204909113043C
:1019D000892B09F444C08EE393E00E940F116091BB
:1019E000410480913E040E9422018091370481309D
:1019F00069F09FEF29EF80E0915020408040E1F7AF
:101A000000C0000080913704813099F740911F0495
:101A1000509120048091250490912604489F9001C4
:101A2000499F300D589F300D112480912B049091C7
:101A30002C04820F931F90932C0480932B049F936C
:101A40008F933F922F920E94F9108FE19EE40197AD
:101A5000F1F700C000000F900F900F900F908DE5F0
:101A600092E00E940F11BFC0873009F0BCC0809186
:101A7000160490911704892BE1F160914304809141
:101A800040040E94030180913904813069F09FEF86
:101A900029EF80E0915020408040E1F700C0000035
:101AA00080913904813099F74091230450912404A6
:101AB0008091290490912A04489F9001499F300DFC
:101AC000589F300D112480912F0490913004820F83
:101AD000931F9093300480932F049F938F9387EDEF
:101AE00092E09F938F930E94F9100F900F900F90A8
:101AF0000F908091140490911504892BB1F180ED21
:101B000097E09093150480931404609142048091AF
:101B10003F040E94E4008091380190E00E9452014D
:101B20008897CCF360E080E00E94E40010923404D7
:101B3000109233041092420410923F0481E080938B
:101B4000380484E193E00E940F1110922E04109249
:101B50002D041F921F9288EE92E09F938F930E9414
:101B6000F9100F900F900F900F90809112049091A8
:101B70001304892BA1F180ED97E0909313048093D7
:101B800012046091410480913E040E9422018091E0
:101B9000370190E00E945201C297CCF360E080E0F0
:101BA0000E942201109232041092310410924104DA
:101BB00010923E0481E0809337048EE193E00E940E
:101BC0000F1110922C0410922B041F921F923F921F
:101BD0002F920E94F9100F900F900F900F908DE5AB
:101BE00092E00E940F1110921304109212041092AE
:101BF000150410921404109217041092160481E038
:101C000080934704809130048F9380912F048F93A9
:101C1000BF92AF920E94F91080912E048F93809111
:101C20002D048F939F928F920E94F91080912C0423
:101C30008F9380912B048F937F926F920E94F91063
:101C400080911E0490E00E9452019F938F935F92B7
:101C50004F920E94F9108091380190E00E94520149
:101C60009F938F93DF92CF920E94F910809137015A
:101C700090E00E9452019F938F93FF92EF920E94F7
:101C8000F9108DB79EB748960FB6F8949EBF0FBE59
:101C90008DBF12C086B190E082239323892BF1F48B
:101CA00086B190E084239523892BC1F488B1482B19
:101CB00048B994E090934A0460914A0498010090D6
:101CC0003D0102C0220F331F0A94E2F7A8010090E1
:101CD0003C0102C0440F551F0A94E2F76430D1F66C
:101CE00081E0809346048FE993E00E940F118FE119
:101CF0009EE40197F1F700C0000080914604813016
:101D000011F5809147048130F1F428B1C8010090A9
:101D1000360102C0880F991F0A94E2F7822B88B916
:101D20008FE19EE40197F1F700C0000082E080930C
:101D30004A04109237041092380410923904109219
:101D400046041092470487EA93E00E940F118091A5
:101D50004A04823011F40C947306809151049091DE
:101D60005204019709F058C080915704811129C08D
:101D700084E68093400481E0809343042BB1C80142
:101D800000903B0102C0880F991F0A94E2F7822B52
:101D90008BB981EB93E00E940F11109252041092C4
:101DA000510460914304809140040E9403019FEF1D
:101DB00023EC89E0915020408040E1F700C0000012
:101DC0002BC0813049F584E68093400481E0809304
:101DD00043048BB1980100903B0102C0220F331FD6
:101DE0000A94E2F7209582238BB98FEB93E00E944F
:101DF0000F1110925204109251046091430480918B
:101E000040040E9403019FEF23EC89E091502040A1
:101E10008040E1F700C0000080914F049091500491
:101E2000019709F058C080915704823049F588E73E
:101E300080933F0481E08093420425B1C801009063
:101E40003A0402C0880F991F0A94E2F7822B85B9E1
:101E50008EEC93E00E940F111092500410924F04E8
:101E60006091420480913F040E94E4009FEF23ECC4
:101E700089E0915020408040E1F700C000002BC075
:101E8000833049F584E680933F0481E080934204E7
:101E900085B1980100903A0402C0220F331F0A94C2
:101EA000E2F72095822385B989ED93E00E940F1116
:101EB0001092500410924F046091420480913F04AC
:101EC0000E94E4009FEF23EC89E091502040804085
:101ED000E1F700C0000080914D0490914E040197FD
:101EE00009F058C080915704843049F584E6809306
:101EF0003E0481E08093410425B1C80100903A017D
:101F000002C0880F991F0A94E2F7822B85B985EEEB
:101F100093E00E940F1110924E0410924D046091B4
:101F2000410480913E040E9422019FEF23EC89E04E
:101F3000915020408040E1F700C000002BC0853068
:101F400049F584E680933E0481E08093410485B1A5
:101F5000980100903A0102C0220F331F0A94E2F761
:101F60002095822385B981EF93E00E940F11109292
:101F70004E0410924D046091410480913E040E94F1
:101F800022019FEF23EC89E0915020408040E1F74F
:101F900000C000009FEF27EB8BE091502040804075
:101FA000E1F700C000000C94C20582130C949B065C
:101FB0000C9498061F920F920FB60F9211242F9334
:101FC0003F934F935F936F937F938F939F93AF93C1
:101FD000BF93EF93FF938091350490913604209145
:101FE0001604309117042817390734F0019690939E
:101FF0003604809335041BC060E080E00E9403013A
:10200000109236041092350410924304109240044A
:1020100081E0809339041F928F938EEF93E09F931A
:102020008F930E94F9100F900F900F900F90FF91D7
:10203000EF91BF91AF919F918F917F916F915F9140
:102040004F913F912F910F900FBE0F901F901895B9
:102050001F920F920FB60F9211242F933F934F931D
:102060005F936F937F938F939F93AF93BF93EF9300
:10207000FF938091330490913404209114043091A3
:1020800015042817390734F001969093340480938F
:10209000330413C060E080E00E94E4001092340436
:1020A000109233041092420410923F0481E0809316
:1020B000380484E193E00E940F11FF91EF91BF91EA
:1020C000AF919F918F917F916F915F914F913F91D0
:1020D0002F910F900FBE0F901F9018951F920F9287
:1020E0000FB60F9211242F933F934F935F936F93EB
:1020F0007F938F939F93AF93BF93EF93FF9399B188
:102100008091390129B120933901892784FF24C0A6
:102110008091310490913204209112043091130483
:102120002817390734F001969093320480933104D4
:1021300013C060E080E00E942201109232041092ED
:1021400031041092410410923E0481E080933704E0
:102150008EE193E00E940F11FF91EF91BF91AF913B
:102160009F918F917F916F915F914F913F912F91AF
:102170000F900FBE0F901F9018951F93FC01992789
:102180008827BC01E89411911032E9F3193010F05E
:102190001E30C8F31B3251F01D3249F4689406C05A
:1021A0000E94E410610F711D811D911D119110534A
:1021B0001A30B0F33EF490958095709561957F4FFD
:1021C0008F4F9F4F1F910895592F482F372F262F3C
:1021D000660F771F881F991F660F771F881F991F2B
:1021E000620F731F841F951F660F771F881F991F2B
:1021F0000895A0E0B0E0EFEFF0E10C94E013AE0141
:102200004B5F5F4FFA0161917191AF0180917B0447
:1022100090917C040E943F11E2E00C94FC130F9318
:102220001F93CF93DF93E0917B04F0917C04238193
:1022300021FF1BC08C01D0E0C0E0F80181918F012B
:1022400060917B0470917C04DB011896ED91FC9108
:102250001997882331F00995892B79F3DFEFCFEFB8
:10226000ECCF8AE00995892B19F08FEF9FEF02C020
:102270008D2F9C2FDF91CF911F910F910895ABE08F
:10228000B0E0E5E4F1E10C94D0136C017B018A012C
:10229000FC0117821682838181FFCCC1CE01019699
:1022A0003C01F6019381F70193FD859193FF8191A4
:1022B0007F01882309F4BAC1853239F493FD8591F1
:1022C00093FF81917F01853229F4B60190E00E944D
:1022D0003613E7CF912C212C312CFFE1F315D8F0E8
:1022E0008B3279F038F4803279F08332A1F4232DE7
:1022F00020611DC08D3261F0803369F4232D21608F
:1023000016C0832D8260382EE32DE4603E2E2AC055
:10231000F32DF8601DC037FC2DC020ED280F2A30AA
:1023200040F08E32B9F436FC81C1232D2064322E68
:1023300019C036FE06C08AE0989E200D1124922E08
:1023400011C0EAE02E9E200D1124222EF32DF06202
:102350003F2E08C08C3621F4832D8068382E02C0B1
:10236000883641F4F70193FD859193FF81917F01B8
:102370008111B3CF982F9F7D9554933028F40C5F33
:102380001F4F9FE399830DC0833631F0833771F07F
:10239000833509F059C021C0F801808189830E5F1F
:1023A0001F4F88248394912C530113C02801F2E01D
:1023B0004F0E511CF801A080B18036FE03C0692D7C
:1023C00070E002C06FEF7FEFC5010E942B134C013C
:1023D0008201F32DFF773F2E16C0280122E0420E26
:1023E000511CF801A080B18036FE03C0692D70E059
:1023F00002C06FEF7FEFC5010E9420134C01F32D47
:10240000F0683F2E820133FC1BC0822D90E08816BD
:102410009906B0F4B60180E290E00E9436132A9447
:10242000F4CFF50137FC859137FE81915F01B6014C
:1024300090E00E94361321102A9421E0821A91081C
:102440008114910471F7E8C0843611F0893641F5A2
:10245000F80137FE07C060817181828193810C5F32
:102460001F4F08C060817181072E000C880B990BEB
:102470000E5F1F4FF32DFF763F2E97FF09C09095FB
:102480008095709561957F4F8F4F9F4FF0683F2EDD
:102490002AE030E0A3010E947213882E861845C0FE
:1024A000853731F4232D2F7EB22E2AE030E025C06F
:1024B000932D997FB92E8F36C1F018F4883579F0B5
:1024C000B5C0803719F0883721F0B0C0E92FE0613E
:1024D000BE2EB4FE0DC0FB2DF460BF2E09C034FE2D
:1024E0000AC0292F2660B22E06C028E030E005C0C1
:1024F00020E130E002C020E132E0F801B7FE07C081
:1025000060817181828193810C5F1F4F06C0608161
:10251000718180E090E00E5F1F4FA3010E94721353
:10252000882E8618FB2DFF773F2E36FE0DC0232DFB
:102530002E7FA22E891458F434FE0BC032FC09C041
:10254000832D8E7EA82E05C0B82CA32C03C0B82CDA
:1025500001C0B92CA4FE0FC0FE01E80DF11D808161
:10256000803321F49A2D997EA92E09C0A2FE06C0BF
:10257000B394B39404C08A2D867809F0B394A3FC75
:1025800011C0A0FE06C0B21488F4280C922C9B182F
:102590000EC0B21460F4B60180E290E00E943613DF
:1025A000B394F7CFB21418F42B1802C0982C212C36
:1025B000A4FE10C0B60180E390E00E943613A2FE94
:1025C00017C0A1FC03C088E790E002C088E590E056
:1025D000B6010CC08A2D867859F0A1FE02C08BE2AC
:1025E00001C080E2A7FC8DE2B60190E00E943613A4
:1025F000891438F4B60180E390E00E9436139A946F
:10260000F7CF8A94F301E80DF11D8081B60190E0C7
:102610000E9436138110F5CF222009F442CEB60174
:1026200080E290E00E9436132A94F6CFF60186816C
:10263000978102C08FEF9FEF2B96E2E10C94EC1391
:10264000FC010590615070400110D8F7809590957D
:102650008E0F9F1F0895FC01615070400190011082
:10266000D8F7809590958E0F9F1F08950F931F9315
:10267000CF93DF93FB01238121FD03C08FEF9FEFF9
:102680002CC022FF16C04681578124813581421714
:10269000530744F4A081B1819D012F5F3F4F3183E7
:1026A00020838C93268137812F5F3F4F378326838A
:1026B00014C08B01EC01FB010084F185E02D09952C
:1026C000892BE1F6D80116968D919C91179701966A
:1026D00017969C938E931697CE01DF91CF911F9101
:1026E0000F910895FA01AA27283051F1203181F184
:1026F000E8946F936E7F6E5F7F4F8F4F9F4FAF4F0A
:10270000B1E03ED0B4E03CD0670F781F891F9A1F1C
:10271000A11D680F791F8A1F911DA11D6A0F711DD0
:10272000811D911DA11D20D009F468943F912AE0DC
:10273000269F11243019305D3193DEF6CF010895C4
:10274000462F4770405D4193B3E00FD0C9F7F6CFF5
:10275000462F4F70405D4A3318F0495D31FD4052BD
:10276000419302D0A9F7EACFB4E0A6959795879553
:1027700077956795BA95C9F7009761057105089532
:102780009B01AC010A2E06945795479537952795DE
:10279000BA95C9F7620F731F841F951FA01D089576
:1027A0002F923F924F925F926F927F928F929F9261
:1027B000AF92BF92CF92DF92EF92FF920F931F934F
:1027C000CF93DF93CDB7DEB7CA1BDB0B0FB6F89400
:1027D000DEBF0FBECDBF09942A88398848885F8440
:1027E0006E847D848C849B84AA84B984C884DF80B1
:1027F000EE80FD800C811B81AA81B981CE0FD11D95
:102800000FB6F894DEBF0FBECDBFED010895F8946A
:02281000FFCFF8
:10281200EE029001000000000000000058020000DB
:1028220000008A022C010000000000000000F401F8
:1028320000000000BC0290010000C20100008403FD
:10284200900120030000050201FF020704030000BB
:102852000002000000007100000000004D656420CD
:102862006F6E20004D6564206F66662000496E64BD
:10287200206F6E2000496E64206F66662000416EF4
:1028820075206F6E2000416E75206F6666200041D4
:1028920076616E7A61722025642070756C736F7335
:1028A200200A0041627269656E646F20696E646914
:1028B2006365200043657272616E646F20696E64A5
:1028C200696365200041627269656E646F206D659F
:1028D20064200043657272616E646F206D656420CE
:1028E2000041627269656E646F20616E756C2000D2
:1028F20043657272616E646F20616E756C20004672
:10290200535220696E643A202564200A00465352CD
:10291200206D65643A202564200A004653522061E6
:102922006E753A202564200A0050756C676172202A
:102932002564200A00496E69636961722063616CD3
:1029420069622000496E64696365206C6973746F03
:1029520020004D6564696F206C6973746F200041BB
:102962006E756C6172206C6973746F2000494D4101
:10297200206C6973746F20004944204D6F763A20B1
:102982002564200A0050493A202564200A00504D4F
:102992003A202564200A0050413A202564200A008A
:1029A200486F6C61207573756172696F204E200AE1
:1029B200200056616D6F7320612063616C696272E1
:1029C2006172200063617420302000636174200012
:1029D200496E20322000496E206D20004966200099
:1029E2004D6F7620302000496E6420656E20706F36
:1029F200733A202564200A004D656420656E2070BC
:102A02006F733A202564200A00416E7520656E209E
:102A1200706F733A202564200A00496E6420636F48
:102A22006D6520004D656420636F6D652000416E09
:102A32007520636F6D652000496E2036200049665F
:102A420020696E6420004966206D65642000496635
:102A520020616E752000496E646963653A202564C1
:102A6200200A004D6564696F3A202564200A0041FE
:102A72006E756C61723A202564200A004675657293
:102A82007A6120496E643A202564200A0046756501
:102A9200727A61204D65643A202564200A004675E9
:102AA20065727A6120416E753A202564200A004CD5
:102AB2006973746F73200057616974206E657720A3
:102AC20000416272697220696E6469636520004325
:102AD200657272617220696E646963652000416289
:102AE200726972206D6564200043657272617220A2
:102AF2006D65642000416272697220616E756C209E
:102B02000043657272617220616E756C2000496EBD
:0E2B12006420636F6D653A202564200A000080
:00000001FF
